{"abi":[{"type":"constructor","inputs":[{"name":"_router","type":"address","internalType":"address"},{"name":"_linkToken","type":"address","internalType":"address"},{"name":"_poolFee","type":"uint24","internalType":"uint24"},{"name":"_swapRouter","type":"address","internalType":"address"},{"name":"_linkMarginFee","type":"uint256","internalType":"uint256"},{"name":"_linkPriceFeedAddress","type":"address","internalType":"address"}],"stateMutability":"nonpayable"},{"type":"function","name":"acceptOwnership","inputs":[],"outputs":[],"stateMutability":"nonpayable"},{"type":"function","name":"addPriceFeedUsdAddressToToken","inputs":[{"name":"token","type":"address","internalType":"address"},{"name":"priceFeed","type":"address","internalType":"address"}],"outputs":[],"stateMutability":"nonpayable"},{"type":"function","name":"allowlistReceiveToken","inputs":[{"name":"_token","type":"address","internalType":"address"}],"outputs":[],"stateMutability":"nonpayable"},{"type":"function","name":"calculateLinkFees","inputs":[{"name":"fromToken","type":"address","internalType":"address"},{"name":"toToken","type":"address","internalType":"address"},{"name":"expectedAmountToToken","type":"uint256","internalType":"uint256"},{"name":"destinationChain","type":"uint64","internalType":"uint64"}],"outputs":[{"name":"linkFee","type":"uint256","internalType":"uint256"}],"stateMutability":"view"},{"type":"function","name":"calculateProtocolFees","inputs":[{"name":"fromToken","type":"address","internalType":"address"},{"name":"toToken","type":"address","internalType":"address"},{"name":"amountFromToken","type":"uint256","internalType":"uint256"},{"name":"expectedAmountToToken","type":"uint256","internalType":"uint256"},{"name":"destinationChain","type":"uint64","internalType":"uint64"}],"outputs":[{"name":"fees","type":"uint256","internalType":"uint256"}],"stateMutability":"view"},{"type":"function","name":"changePoolFee","inputs":[{"name":"newPoolFee","type":"uint24","internalType":"uint24"}],"outputs":[],"stateMutability":"nonpayable"},{"type":"function","name":"denylistChain","inputs":[{"name":"_destinationChainSelector","type":"uint64","internalType":"uint64"}],"outputs":[],"stateMutability":"nonpayable"},{"type":"function","name":"denylistReceiveToken","inputs":[{"name":"_token","type":"address","internalType":"address"}],"outputs":[],"stateMutability":"nonpayable"},{"type":"function","name":"denylistSwapPair","inputs":[{"name":"fromToken","type":"address","internalType":"address"},{"name":"toToken","type":"address","internalType":"address"}],"outputs":[],"stateMutability":"nonpayable"},{"type":"function","name":"denylistTokenOnChain","inputs":[{"name":"_destinationChainSelector","type":"uint64","internalType":"uint64"},{"name":"_token","type":"address","internalType":"address"}],"outputs":[],"stateMutability":"nonpayable"},{"type":"function","name":"getLinkTokenAddress","inputs":[],"outputs":[{"name":"","type":"address","internalType":"address"}],"stateMutability":"view"},{"type":"function","name":"getRouterAddress","inputs":[],"outputs":[{"name":"","type":"address","internalType":"address"}],"stateMutability":"view"},{"type":"function","name":"getSwapRouter","inputs":[],"outputs":[{"name":"","type":"address","internalType":"address"}],"stateMutability":"view"},{"type":"function","name":"getTokenPriceFeedAddress","inputs":[{"name":"token","type":"address","internalType":"address"}],"outputs":[{"name":"","type":"address","internalType":"address"}],"stateMutability":"view"},{"type":"function","name":"getTokenUsdValue","inputs":[{"name":"token","type":"address","internalType":"address"},{"name":"amount","type":"uint256","internalType":"uint256"}],"outputs":[{"name":"amountInUsd","type":"uint256","internalType":"uint256"}],"stateMutability":"view"},{"type":"function","name":"owner","inputs":[],"outputs":[{"name":"","type":"address","internalType":"address"}],"stateMutability":"view"},{"type":"function","name":"poolFee","inputs":[],"outputs":[{"name":"","type":"uint24","internalType":"uint24"}],"stateMutability":"view"},{"type":"function","name":"removePriceFeedUsdAddressToToken","inputs":[{"name":"token","type":"address","internalType":"address"}],"outputs":[],"stateMutability":"nonpayable"},{"type":"function","name":"switchlaneExactInput","inputs":[{"name":"sender","type":"address","internalType":"address"},{"name":"receiver","type":"address","internalType":"address"},{"name":"fromToken","type":"address","internalType":"address"},{"name":"toToken","type":"address","internalType":"address"},{"name":"destinationChain","type":"uint64","internalType":"uint64"},{"name":"amount","type":"uint256","internalType":"uint256"},{"name":"minimumReceiveAmount","type":"uint256","internalType":"uint256"}],"outputs":[],"stateMutability":"nonpayable"},{"type":"function","name":"switchlaneExactOutput","inputs":[{"name":"sender","type":"address","internalType":"address"},{"name":"receiver","type":"address","internalType":"address"},{"name":"fromToken","type":"address","internalType":"address"},{"name":"toToken","type":"address","internalType":"address"},{"name":"destinationChain","type":"uint64","internalType":"uint64"},{"name":"expectedOutputAmount","type":"uint256","internalType":"uint256"},{"name":"amount","type":"uint256","internalType":"uint256"}],"outputs":[],"stateMutability":"nonpayable"},{"type":"function","name":"transferOwnership","inputs":[{"name":"to","type":"address","internalType":"address"}],"outputs":[],"stateMutability":"nonpayable"},{"type":"function","name":"whiteListedChains","inputs":[{"name":"","type":"uint64","internalType":"uint64"}],"outputs":[{"name":"","type":"bool","internalType":"bool"}],"stateMutability":"view"},{"type":"function","name":"whiteListedReceiveTokens","inputs":[{"name":"","type":"address","internalType":"address"}],"outputs":[{"name":"","type":"bool","internalType":"bool"}],"stateMutability":"view"},{"type":"function","name":"whiteListedSwapPair","inputs":[{"name":"","type":"address","internalType":"address"},{"name":"","type":"address","internalType":"address"}],"outputs":[{"name":"","type":"bool","internalType":"bool"}],"stateMutability":"view"},{"type":"function","name":"whiteListedTokensOnChains","inputs":[{"name":"","type":"uint64","internalType":"uint64"},{"name":"","type":"address","internalType":"address"}],"outputs":[{"name":"","type":"bool","internalType":"bool"}],"stateMutability":"view"},{"type":"function","name":"whitelistChain","inputs":[{"name":"_destinationChainSelector","type":"uint64","internalType":"uint64"}],"outputs":[],"stateMutability":"nonpayable"},{"type":"function","name":"whitelistSwapPair","inputs":[{"name":"fromToken","type":"address","internalType":"address"},{"name":"toToken","type":"address","internalType":"address"}],"outputs":[],"stateMutability":"nonpayable"},{"type":"function","name":"whitelistTokenOnChain","inputs":[{"name":"_destinationChainSelector","type":"uint64","internalType":"uint64"},{"name":"_token","type":"address","internalType":"address"}],"outputs":[],"stateMutability":"nonpayable"},{"type":"function","name":"withdrawToken","inputs":[{"name":"_beneficiary","type":"address","internalType":"address"},{"name":"_token","type":"address","internalType":"address"}],"outputs":[],"stateMutability":"nonpayable"},{"type":"event","name":"OwnershipTransferRequested","inputs":[{"name":"from","type":"address","indexed":true,"internalType":"address"},{"name":"to","type":"address","indexed":true,"internalType":"address"}],"anonymous":false},{"type":"event","name":"OwnershipTransferred","inputs":[{"name":"from","type":"address","indexed":true,"internalType":"address"},{"name":"to","type":"address","indexed":true,"internalType":"address"}],"anonymous":false},{"type":"event","name":"TokensTransferred","inputs":[{"name":"messageId","type":"bytes32","indexed":true,"internalType":"bytes32"},{"name":"destinationChainSelector","type":"uint64","indexed":true,"internalType":"uint64"},{"name":"receiver","type":"address","indexed":false,"internalType":"address"},{"name":"token","type":"address","indexed":false,"internalType":"address"},{"name":"tokenAmount","type":"uint256","indexed":false,"internalType":"uint256"},{"name":"feeToken","type":"address","indexed":false,"internalType":"address"},{"name":"fees","type":"uint256","indexed":false,"internalType":"uint256"}],"anonymous":false},{"type":"error","name":"DestinationChainNotWhiteListed","inputs":[]},{"type":"error","name":"MustBeMoreThanZero","inputs":[]},{"type":"error","name":"MustHaveAssociatedPriceFeed","inputs":[]},{"type":"error","name":"NotEnoughLinkBalance","inputs":[]},{"type":"error","name":"NotEnoughTokenBalance","inputs":[]},{"type":"error","name":"NotEnoughTokensToPayFees","inputs":[]},{"type":"error","name":"NothingToWithdraw","inputs":[]},{"type":"error","name":"ReceiveTokenNotWhiteListed","inputs":[]},{"type":"error","name":"SwapPairNotWhiteListed","inputs":[]},{"type":"error","name":"TokenOnChainNotWhiteListed","inputs":[]},{"type":"error","name":"UnreachedMinimumAmount","inputs":[]}],"bytecode":{"object":"0x60806040523480156200001157600080fd5b506040516200255038038062002550833981016040819052620000349162000203565b33806000816200008b5760405162461bcd60e51b815260206004820152601860248201527f43616e6e6f7420736574206f776e657220746f207a65726f000000000000000060448201526064015b60405180910390fd5b600080546001600160a01b0319166001600160a01b0384811691909117909155811615620000be57620000be816200013b565b5050600280546001600160a01b03199081166001600160a01b03998a16179091556003805482169789169788179055600a805462ffffff191662ffffff97909716969096179095555060048054851693871693909317909255600b5560009283526009602052604090922080549091169190921617905562000284565b336001600160a01b03821603620001955760405162461bcd60e51b815260206004820152601760248201527f43616e6e6f74207472616e7366657220746f2073656c66000000000000000000604482015260640162000082565b600180546001600160a01b0319166001600160a01b0383811691821790925560008054604051929316917fed8889f560326eb138920d842192f0eb3dd22b4f139c87a2c57538e05bae12789190a350565b80516001600160a01b0381168114620001fe57600080fd5b919050565b60008060008060008060c087890312156200021d57600080fd5b6200022887620001e6565b95506200023860208801620001e6565b9450604087015162ffffff811681146200025157600080fd5b93506200026160608801620001e6565b9250608087015191506200027860a08801620001e6565b90509295509295509295565b6122bc80620002946000396000f3fe608060405234801561001057600080fd5b50600436106101cf5760003560e01c80637643fe6711610104578063c1814fa2116100a2578063f1b99cfb11610071578063f1b99cfb14610441578063f2fde38b14610454578063fa90296814610467578063ff6805951461047a57600080fd5b8063c1814fa2146103f7578063d345ac7d1461040a578063d54f7d5e1461041d578063dfc9696a1461042e57600080fd5b80638d4e214c116100de5780638d4e214c1461039d5780638da5cb5b146103b057806390af9e92146103c1578063a7699549146103e457600080fd5b80637643fe671461035f57806379ba5097146103725780637d7216291461037a57600080fd5b80633aeac4e11161017157806363044de51161014b57806363044de5146102fd57806363420ce714610328578063725c9c491461033b57806373b267d71461034c57600080fd5b80633aeac4e11461027e578063604053be14610291578063628b6808146102cf57600080fd5b80630bad3782116101ad5780630bad3782146102245780631e041b2e14610237578063333e0ffd1461025857806334625dcc1461026b57600080fd5b806305890078146101d457806306eaf5c1146101e9578063089fe6aa146101fc575b600080fd5b6101e76101e2366004611da7565b61048b565b005b6101e76101f7366004611dda565b6104c4565b600a5461020b9062ffffff1681565b60405162ffffff90911681526020015b60405180910390f35b6101e7610232366004611dda565b6104ed565b61024a610245366004611e14565b61051c565b60405190815260200161021b565b61024a610266366004611e61565b610758565b6101e7610279366004611eb8565b61089f565b6101e761028c366004611da7565b6108c9565b6102bf61029f366004611ed3565b600660209081526000928352604080842090915290825290205460ff1681565b604051901515815260200161021b565b6102bf6102dd366004611da7565b600860209081526000928352604080842090915290825290205460ff1681565b61031061030b366004611dda565b6109d8565b6040516001600160a01b03909116815260200161021b565b6101e7610336366004611eef565b610a04565b6004546001600160a01b0316610310565b61024a61035a366004611f67565b610bcb565b6101e761036d366004611dda565b610cc2565b6101e7610cee565b6102bf610388366004611dda565b60076020526000908152604090205460ff1681565b6101e76103ab366004611ed3565b610d9d565b6000546001600160a01b0316610310565b6102bf6103cf366004611eb8565b60056020526000908152604090205460ff1681565b6101e76103f2366004611ed3565b610de0565b6101e7610405366004611eef565b610e20565b6101e7610418366004611eb8565b611085565b6002546001600160a01b0316610310565b6101e761043c366004611da7565b6110b2565b6101e761044f366004611da7565b6110ee565b6101e7610462366004611dda565b611124565b6101e7610475366004611f91565b611138565b6003546001600160a01b0316610310565b61049361115a565b6001600160a01b0391821660009081526008602090815260408083209390941682529190915220805460ff19169055565b6104cc61115a565b6001600160a01b03166000908152600760205260409020805460ff19169055565b6104f561115a565b6001600160a01b0316600090815260096020526040902080546001600160a01b0319169055565b60008260008111610540576040516306f3a52d60e11b815260040160405180910390fd5b6001600160a01b038087166000908152600860209081526040808320938916835292905220548690869060ff1661058a57604051631cc99ef360e31b815260040160405180910390fd5b67ffffffffffffffff8516600090815260056020526040902054859060ff166105c65760405163bcbaccb360e01b815260040160405180910390fd5b604080516001808252818301909252600091816020015b60408051808201909152600080825260208201528152602001906001900390816105dd579050509050600060405180604001604052808b6001600160a01b031681526020018a8152509050808260008151811061063c5761063c611fb6565b60209081029190910101526040805160a081019091523360c08201526000908060e0810160408051601f198184030181529181529082528051602081810183526000808352848201929092528383018890526003546001600160a01b0316606085015282518084019093528183528201526080909101906106bc906111af565b90526002546040516320487ded60e01b81529192506000916001600160a01b03909116906320487ded906106f6908d908690600401612012565b602060405180830381865afa158015610713573d6000803e3d6000fd5b505050506040513d601f19601f8201168201806040525081019061073791906120de565b9050600b5481610747919061210d565b9d9c50505050505050505050505050565b6000836000811161077c576040516306f3a52d60e11b815260040160405180910390fd5b836000811161079e576040516306f3a52d60e11b815260040160405180910390fd5b6001600160a01b038089166000908152600860209081526040808320938b16835292905220548890889060ff166107e857604051631cc99ef360e31b815260040160405180910390fd5b67ffffffffffffffff8616600090815260056020526040902054869060ff166108245760405163bcbaccb360e01b815260040160405180910390fd5b6000806108338d8d8c8c61051c565b9050600081610841836111f9565b61084b919061210d565b600354909150610864906001600160a01b031682610bcb565b9250505060006108738b6111f9565b905060006108818e83610bcb565b905061088d818461210d565b9e9d5050505050505050505050505050565b6108a761115a565b67ffffffffffffffff166000908152600560205260409020805460ff19169055565b6108d161115a565b6040516370a0823160e01b81523060048201526000906001600160a01b038316906370a0823190602401602060405180830381865afa158015610918573d6000803e3d6000fd5b505050506040513d601f19601f8201168201806040525081019061093c91906120de565b90508060000361095f57604051630686827b60e51b815260040160405180910390fd5b60405163a9059cbb60e01b81526001600160a01b0384811660048301526024820183905283169063a9059cbb906044016020604051808303816000875af11580156109ae573d6000803e3d6000fd5b505050506040513d601f19601f820116820180604052508101906109d29190612120565b50505050565b60006109e261115a565b506001600160a01b03808216600090815260096020526040902054165b919050565b610a0c61115a565b8160008111610a2e576040516306f3a52d60e11b815260040160405180910390fd5b8160008111610a50576040516306f3a52d60e11b815260040160405180910390fd5b610a5b89888661123e565b6000610a698888868961051c565b6003549091506001600160a01b038981169116148015610a9657506003546001600160a01b038881169116145b15610abc576000610aa78287612142565b9050610ab5878b8a846113b0565b5050610bbf565b60035460009081906001600160a01b03908116908b1603610af657610ae18388612142565b9150610aef8a8a848961182b565b9050610baf565b6003546001600160a01b03908116908a1603610b2e576000610b1a8b8b8a8a61182b565b9050610b268482612142565b915050610baf565b600354600090610b4a908c906001600160a01b031686846119ff565b90506000610b58828a612142565b90508a6001600160a01b03168c6001600160a01b031614610ba857610b808c8c83600061182b565b925087831015610ba35760405163b3bfc3f360e01b815260040160405180910390fd5b610bac565b8092505b50505b610bbb888c8b846113b0565b5050505b50505050505050505050565b6001600160a01b038083166000908152600960205260408120549091849116610c075760405163418b6fd560e11b815260040160405180910390fd5b6001600160a01b03808516600090815260096020526040808220548151633fabe5a360e21b81529151931692839163feaf968c9160048083019260a09291908290030181865afa158015610c5f573d6000803e3d6000fd5b505050506040513d601f19601f82011682018060405250810190610c83919061216f565b505050915050670de0b6b3a7640000856402540be40083610ca491906121b3565b610cae91906121e3565b610cb891906121fa565b9695505050505050565b610cca61115a565b6001600160a01b03166000908152600760205260409020805460ff19166001179055565b6001546001600160a01b03163314610d465760405162461bcd60e51b815260206004820152601660248201527526bab9ba10313290383937b837b9b2b21037bbb732b960511b60448201526064015b60405180910390fd5b60008054336001600160a01b0319808316821784556001805490911690556040516001600160a01b0390921692909183917f8be0079c531659141344cd1fd0a4f28419497f9722a3daafe3b4186f6b6457e091a350565b610da561115a565b67ffffffffffffffff90911660009081526006602090815260408083206001600160a01b03909416835292905220805460ff19166001179055565b610de861115a565b67ffffffffffffffff90911660009081526006602090815260408083206001600160a01b03909416835292905220805460ff19169055565b610e2861115a565b8060008111610e4a576040516306f3a52d60e11b815260040160405180910390fd5b8260008111610e6c576040516306f3a52d60e11b815260040160405180910390fd5b610e7789888561123e565b6000610e858888878961051c565b6003549091506000906001600160a01b038a81169116148015610eb557506003546001600160a01b038981169116145b15610eec57610ec48286612142565b905085811015610ee757604051632a3d300560e11b815260040160405180910390fd5b61106b565b876001600160a01b0316896001600160a01b03161461101e576003546001600160a01b03908116908a1603610f6d576000610f278387612142565b90506000610f378b8b8a856119ff565b9050610f438188612142565b925083831015610f6657604051632a3d300560e11b815260040160405180910390fd5b505061106b565b6003546001600160a01b0390811690891603610fc2576000610f8f838861210d565b90506000610f9f8b8b898561182b565b905081811015610f6657604051632a3d300560e11b815260040160405180910390fd5b6000610fd08a8a89896119ff565b9050610fdc8187612142565b600354909250600090610ffb908c906001600160a01b0316858461182b565b905083811015610f6657604051632a3d300560e11b815260040160405180910390fd5b60035460009061103a908b906001600160a01b031685846119ff565b90506110468187612142565b91508682101561106957604051632a3d300560e11b815260040160405180910390fd5b505b611077878b8a896113b0565b505050505050505050505050565b61108d61115a565b67ffffffffffffffff166000908152600560205260409020805460ff19166001179055565b6110ba61115a565b6001600160a01b0391821660009081526008602090815260408083209390941682529190915220805460ff19166001179055565b6110f661115a565b6001600160a01b03918216600090815260096020526040902080546001600160a01b03191691909216179055565b61112c61115a565b61113581611ce7565b50565b61114061115a565b600a805462ffffff191662ffffff92909216919091179055565b6000546001600160a01b031633146111ad5760405162461bcd60e51b815260206004820152601660248201527527b7363c9031b0b63630b1363290313c9037bbb732b960511b6044820152606401610d3d565b565b6040805182516024820152602092830151151560448083019190915282518083039091018152606490910190915290810180516001600160e01b03166397a657c960e01b17905290565b600a5460009069d3c21bcecceda100000090670de0b6b3a7640000906112249062ffffff16856121e3565b61122e91906121e3565b61123891906121fa565b92915050565b6001600160a01b038216600090815260076020526040902054829060ff1661127957604051630603f0a760e11b815260040160405180910390fd5b816000811161129b576040516306f3a52d60e11b815260040160405180910390fd5b6040516370a0823160e01b81526001600160a01b03808716600483015286918691869182918416906370a0823190602401602060405180830381865afa1580156112e9573d6000803e3d6000fd5b505050506040513d601f19601f8201168201806040525081019061130d91906120de565b101561132c57604051635dd3b4d160e01b815260040160405180910390fd5b6040516323b872dd60e01b81526001600160a01b038981166004830152306024830152604482018890528816906323b872dd906064016020604051808303816000875af1158015611381573d6000803e3d6000fd5b505050506040513d601f19601f820116820180604052508101906113a59190612120565b505050505050505050565b67ffffffffffffffff8416600090815260056020526040812054859060ff166113ec5760405163bcbaccb360e01b815260040160405180910390fd5b826000811161140e576040516306f3a52d60e11b815260040160405180910390fd5b61141661115a565b604080516001808252818301909252600091816020015b604080518082019091526000808252602082015281526020019060019003908161142d57905050905060006040518060400160405280886001600160a01b03168152602001878152509050808260008151811061148c5761148c611fb6565b60209081029190910101526040805160a081019091526001600160a01b03891660c08201526000908060e0810160408051601f198184030181529181529082528051602081810183526000808352848201929092528383018890526003546001600160a01b031660608501528251808401909352818352820152608090910190611515906111af565b90526002546040516320487ded60e01b81529192506000916001600160a01b03909116906320487ded9061154f908e908690600401612012565b602060405180830381865afa15801561156c573d6000803e3d6000fd5b505050506040513d601f19601f8201168201806040525081019061159091906120de565b6003546040516370a0823160e01b81523060048201529192506000916001600160a01b03909116906370a0823190602401602060405180830381865afa1580156115de573d6000803e3d6000fd5b505050506040513d601f19601f8201168201806040525081019061160291906120de565b905080821115611625576040516328c3328d60e01b815260040160405180910390fd5b60035460025460405163095ea7b360e01b81526001600160a01b0391821660048201526024810185905291169063095ea7b3906044016020604051808303816000875af115801561167a573d6000803e3d6000fd5b505050506040513d601f19601f8201168201806040525081019061169e9190612120565b5060025460405163095ea7b360e01b81526001600160a01b039182166004820152602481018b9052908b169063095ea7b3906044016020604051808303816000875af11580156116f2573d6000803e3d6000fd5b505050506040513d601f19601f820116820180604052508101906117169190612120565b506002546040516396f4e9f960e01b81526001600160a01b03909116906396f4e9f990611749908f908790600401612012565b6020604051808303816000875af1158015611768573d6000803e3d6000fd5b505050506040513d601f19601f8201168201806040525081019061178c91906120de565b97508b67ffffffffffffffff16887fc15fb748c32ba4eb29c1c311e78533f93b4425eab49ea87c6fe4279ecadca0438d8d8d600360009054906101000a90046001600160a01b0316886040516118149594939291906001600160a01b039586168152938516602085015260408401929092529092166060820152608081019190915260a00190565b60405180910390a350505050505050949350505050565b6001600160a01b0380851660009081526008602090815260408083209387168352929052908120548590859060ff1661187757604051631cc99ef360e31b815260040160405180910390fd5b8460008111611899576040516306f3a52d60e11b815260040160405180910390fd5b84600081116118bb576040516306f3a52d60e11b815260040160405180910390fd5b6003546004805460405163095ea7b360e01b81526001600160a01b0391821692810192909252602482018a90529091169063095ea7b3906044016020604051808303816000875af1158015611914573d6000803e3d6000fd5b505050506040513d601f19601f820116820180604052508101906119389190612120565b5060408051610100810182526001600160a01b03808c1682528a81166020830152600a5462ffffff168284015230606083015242608083015260a082018a905260c08201899052600060e083015260048054935163414bf38960e01b815292939091169163414bf389916119ae9185910161221c565b6020604051808303816000875af11580156119cd573d6000803e3d6000fd5b505050506040513d601f19601f820116820180604052508101906119f191906120de565b9a9950505050505050505050565b6001600160a01b0380851660009081526008602090815260408083209387168352929052908120548590859060ff16611a4b57604051631cc99ef360e31b815260040160405180910390fd5b8460008111611a6d576040516306f3a52d60e11b815260040160405180910390fd5b8460008111611a8f576040516306f3a52d60e11b815260040160405180910390fd5b6003546004805460405163095ea7b360e01b81526001600160a01b0391821692810192909252602482018990529091169063095ea7b3906044016020604051808303816000875af1158015611ae8573d6000803e3d6000fd5b505050506040513d601f19601f82011682018060405250810190611b0c9190612120565b5060408051610100810182526001600160a01b03808c1682528a81166020830152600a5462ffffff168284015230606083015242608083015260a082018a905260c08201899052600060e0830152600480549351631b67c43360e31b815292939091169163db3e219891611b829185910161221c565b6020604051808303816000875af1158015611ba1573d6000803e3d6000fd5b505050506040513d601f19601f82011682018060405250810190611bc591906120de565b955086861015611cda576003546004805460405163095ea7b360e01b81526001600160a01b0391821692810192909252600060248301529091169063095ea7b3906044016020604051808303816000875af1158015611c28573d6000803e3d6000fd5b505050506040513d601f19601f82011682018060405250810190611c4c9190612120565b506003546001600160a01b031663a9059cbb30611c69898b612142565b6040516001600160e01b031960e085901b1681526001600160a01b03909216600483015260248201526044016020604051808303816000875af1158015611cb4573d6000803e3d6000fd5b505050506040513d601f19601f82011682018060405250810190611cd89190612120565b505b5050505050949350505050565b336001600160a01b03821603611d3f5760405162461bcd60e51b815260206004820152601760248201527f43616e6e6f74207472616e7366657220746f2073656c660000000000000000006044820152606401610d3d565b600180546001600160a01b0319166001600160a01b0383811691821790925560008054604051929316917fed8889f560326eb138920d842192f0eb3dd22b4f139c87a2c57538e05bae12789190a350565b80356001600160a01b03811681146109ff57600080fd5b60008060408385031215611dba57600080fd5b611dc383611d90565b9150611dd160208401611d90565b90509250929050565b600060208284031215611dec57600080fd5b611df582611d90565b9392505050565b803567ffffffffffffffff811681146109ff57600080fd5b60008060008060808587031215611e2a57600080fd5b611e3385611d90565b9350611e4160208601611d90565b925060408501359150611e5660608601611dfc565b905092959194509250565b600080600080600060a08688031215611e7957600080fd5b611e8286611d90565b9450611e9060208701611d90565b93506040860135925060608601359150611eac60808701611dfc565b90509295509295909350565b600060208284031215611eca57600080fd5b611df582611dfc565b60008060408385031215611ee657600080fd5b611dc383611dfc565b600080600080600080600060e0888a031215611f0a57600080fd5b611f1388611d90565b9650611f2160208901611d90565b9550611f2f60408901611d90565b9450611f3d60608901611d90565b9350611f4b60808901611dfc565b925060a0880135915060c0880135905092959891949750929550565b60008060408385031215611f7a57600080fd5b611f8383611d90565b946020939093013593505050565b600060208284031215611fa357600080fd5b813562ffffff81168114611df557600080fd5b634e487b7160e01b600052603260045260246000fd5b6000815180845260005b81811015611ff257602081850181015186830182015201611fd6565b506000602082860101526020601f19601f83011685010191505092915050565b6000604067ffffffffffffffff8516835260208181850152845160a08386015261203f60e0860182611fcc565b905081860151603f198087840301606088015261205c8383611fcc565b88860151888203830160808a01528051808352908601945060009350908501905b808410156120af57845180516001600160a01b031683528601518683015293850193600193909301929086019061207d565b5060608901516001600160a01b031660a08901526080890151888203830160c08a015295506119f18187611fcc565b6000602082840312156120f057600080fd5b5051919050565b634e487b7160e01b600052601160045260246000fd5b80820180821115611238576112386120f7565b60006020828403121561213257600080fd5b81518015158114611df557600080fd5b81810381811115611238576112386120f7565b805169ffffffffffffffffffff811681146109ff57600080fd5b600080600080600060a0868803121561218757600080fd5b61219086612155565b9450602086015193506040860151925060608601519150611eac60808701612155565b80820260008212600160ff1b841416156121cf576121cf6120f7565b8181058314821517611238576112386120f7565b8082028115828204841417611238576112386120f7565b60008261221757634e487b7160e01b600052601260045260246000fd5b500490565b6101008101611238828480516001600160a01b03908116835260208083015182169084015260408083015162ffffff16908401526060808301518216908401526080808301519084015260a0828101519084015260c0808301519084015260e0918201511691015256fea2646970667358221220aaf9dedef89c0d2207818076594cdd8c1791a19945da7dfdde8ccf99ee46aa7064736f6c63430008140033","linkReferences":{}},"methodIdentifiers":{"acceptOwnership()":"79ba5097","addPriceFeedUsdAddressToToken(address,address)":"f1b99cfb","allowlistReceiveToken(address)":"7643fe67","calculateLinkFees(address,address,uint256,uint64)":"1e041b2e","calculateProtocolFees(address,address,uint256,uint256,uint64)":"333e0ffd","changePoolFee(uint24)":"fa902968","denylistChain(uint64)":"34625dcc","denylistReceiveToken(address)":"06eaf5c1","denylistSwapPair(address,address)":"05890078","denylistTokenOnChain(uint64,address)":"a7699549","getLinkTokenAddress()":"ff680595","getRouterAddress()":"d54f7d5e","getSwapRouter()":"725c9c49","getTokenPriceFeedAddress(address)":"63044de5","getTokenUsdValue(address,uint256)":"73b267d7","owner()":"8da5cb5b","poolFee()":"089fe6aa","removePriceFeedUsdAddressToToken(address)":"0bad3782","switchlaneExactInput(address,address,address,address,uint64,uint256,uint256)":"63420ce7","switchlaneExactOutput(address,address,address,address,uint64,uint256,uint256)":"c1814fa2","transferOwnership(address)":"f2fde38b","whiteListedChains(uint64)":"90af9e92","whiteListedReceiveTokens(address)":"7d721629","whiteListedSwapPair(address,address)":"628b6808","whiteListedTokensOnChains(uint64,address)":"604053be","whitelistChain(uint64)":"d345ac7d","whitelistSwapPair(address,address)":"dfc9696a","whitelistTokenOnChain(uint64,address)":"8d4e214c","withdrawToken(address,address)":"3aeac4e1"},"id":43}